:0408000060EF09F0AC
:08080800F76A180FF66E080EE6
:10081000F7220900F5501200280C0106446F6F7290
:1008200020556E6C6F636B656400416C61726D2165
:10083000000041646D696E2072657175697265644E
:100840000000456E74657220436F6465203A0000B5
:100850002A0057726F6E6720436F64650000547200
:1008600079204C65667425750000436F64652047E8
:10087000657374696F6E00002A3D41646D696E2076
:10088000233D5075626C69630000436F64652053BB
:10089000757065727669736575720000436F646583
:1008A000205075626C696300EA6A240EE96EEF50AD
:1008B0000EE00F0E016E006A002EFED7012EFBD750
:1008C0008F0E006E002EFED70000EF2EF2D7000C28
:1008D0002BB002D08C9801D08C8895982BB202D086
:1008E0008C9A01D08C8A959A2BB402D08C9C01D022
:1008F0008C8C959C2BB602D08C9E01D08C8E959EB4
:1009000000008D849694070E006E002EFED700D056
:100910008D949694000C2C6A9588000E83B8010E75
:100920002C12958A000E83BA010E006ED890003604
:1009300000502C12958C000E83BC010E006E003608
:100940000036FC0E001600502C12958E000E83BE51
:10095000010E006E003600360036F80E001600500C
:100960002C122CC001F0000C9588958A958C958EE0
:100970008D82969200008D8496940000CCDF01C099
:100980002BF08D94969400008D849694030E006E47
:10099000002EFED700D0BFDF01C02AF08D949694C0
:1009A0009598959A959C959E2B38006EF00E0016A2
:1009B00000502A10016EE0EF04F08D909690D4D78D
:1009C00001C02AF001BEFBD7285202E18D9001D070
:1009D0008D80969000008D92969200008D94969452
:1009E00029382A6E0F0E2A162AC02BF071DF2950E3
:1009F0000F0B2A6E2B6E6CDF000C9598959A959CC8
:100A0000959E9694969096928D9096908D929692B1
:100A10008D9496940F0E246E47DF010E0F6E0F50CB
:100A2000030808E3030E2B6E53DF050E246E3CDF34
:100A30000F2AF5D7020E2B6E4BDF0F6A0F500308FB
:100A40000EE3036A0F50F2CF10F0F29EDDDE10BE0F
:100A5000F28E106E286A296EB0DF0F2AEFD772EF80
:100A600009F025502702F3CF01F0F4CF00F028025F
:100A7000F350002626502702F3500020026E000C8F
:100A80008E0E006E1DC001F01CC002F0036A015200
:100A900009E102C001F0026A080E005E015202E1A3
:100AA000006A08D0D89001BE04D002360136000694
:100AB000F9D7019EC2EF05F0136A126A156A146A2B
:100AC000176A166A196A186A1B6A1A6A116A11503B
:100AD000030825E311500F241C6E000E10201D6E1C
:100AE000F2CF1EF0F29E1CC0A9FFA69CA69EA68077
:100AF000A8501EBEF28E1B6A1A6E17C019F016C0DF
:100B000018F015C017F014C016F013C015F012C07D
:100B100014F01BC013F01AC012F0112AD8D719C054
:100B200026F018C025F0030E286EE80E276E99DF18
:100B300002C01DF001C01CF017C026F016C025F041
:100B4000286A640E276E8DDF02C003F001501C2658
:100B500002501D2215C026F014C025F0286A0A0E86
:100B6000276E7FDF02C003F001501C2602501D22B9
:100B700012501C24016E13501D20036E01C01CF086
:100B80001D6E7ED7000C8E0E006E0F50005E10C0E2
:100B900002F011C001F0028E005209E0D89002521A
:100BA00002E1015204E002320132002EF7D710AE0A
:100BB00005D0011E021E012AD8B4022A000C286AA0
:100BC000010E296EFADE000C252C01D003D0400E58
:100BD000266E01D0266A010E245C26262650800946
:100BE000276E286A296EE9DE000C23500C0A05E006
:100BF000060A0BE0020A0FE013D0286A010E296EE4
:100C0000DCDE020E246E50DE11D0010E246E020EC8
:100C1000256EDADF0BD0286A100E296ECEDE06D0E4
:100C2000010E286E23C029F0C8DE00D0000C090098
:100C3000F5520CE0F6CF21F0F7CF22F0F5CF23F0FC
:100C4000D4DF21C0F6FF22C0F7FFF1D7000C286ADD
:100C50000F0E296EB2DED2EF06F0226A0F0E216E61
:100C6000FF0E926E80500F0B246E266A256E010EC9
:100C7000286E276AF6DEFF0E936E815001240A6EFD
:100C8000000E02200B6E0B500E0805E2FF0AE8E191
:100C90000A50FE08E5E30A50FE0805E10B500F0874
:100CA00002E1226A216A0A50FD0806E10B500F0892
:100CB00003E1226A010E216E0A50FB0806E10B5087
:100CC0000F0803E1226A020E216E0A50F70806E1BE
:100CD0000B500F0803E1226A030E216E0A50EF0841
:100CE00006E10B500F0803E1226A040E216E0A5040
:100CF000DF0806E10B500F0803E1226A050E216EA2
:100D00000A50BF0806E10B500F0803E1226A060EE5
:100D1000216E0A507F0806E10B500F0803E1226A9A
:100D2000070E216E0A3C06D00B500E0803E1226A22
:100D3000080E216E0A3C06D00B500D0803E1226A12
:100D4000090E216E0A3C06D00B500B0803E1226A03
:100D50000A0E216E0A3C06D00B50070803E1226AF6
:100D60000B0E216E0B6A0A6A21C001F022C002F04C
:100D7000000C186A0F0E176E1A6A196E1C6A1B6E29
:100D80001E6A1D6E12C024F013C025F01DDF420E36
:100D9000F66E080EF76E4BDF14C024F015C025F078
:100DA00013DF55D7010E166E1650040823E355DFE6
:100DB00002C020F001C01FF01CC01EF01BC01DF0BF
:100DC0001AC01CF019C01BF018C01AF017C019F097
:100DD00020C018F01FC017F0500EF66E080EF76E08
:100DE00026DF95908C80FA0E246E5EDD95908C90B7
:100DF000162ADAD71EC026F01DC025F0030E286E75
:100E0000E80E276E2EDE02C022F001C021F01CC0C9
:100E100026F01BC025F0286A640E276E22DE02C071
:100E200003F001502126025022221AC026F019C0D8
:100E300025F0286A0A0E276E14DE02C003F0015066
:100E400021260250222217502124016E1850222000
:100E5000036E026E000C286A0C0E296EAEDD000CCB
:100E6000016A026A006A036A225002E1215018E016
:100E7000100E236ED8901F362036003603362250CF
:100E8000035C02E12150005C07E32150005ED8A022
:100E900003062250035ED88001360236232EEAD79D
:100EA000000C176A186A196A1A6A030E1C6EE80E9B
:100EB0001B6E166A165003082DE3036A1650170FAF
:100EC000E96E000E0320EA6E15C020F014C01FF07A
:100ED0001CC022F01BC021F0C3DF01C0EFFF15C012
:100EE00020F014C01FF01CC022F01BC021F0B8DF9E
:100EF00000C014F003C015F01CC020F01BC01FF090
:100F0000226A0A0E216EACDF02C01CF001C01BF089
:100F1000162AD0D7166A1650030827E31650122453
:100F20001D6E000E13201E6E036A1650170FE96E19
:100F3000000E0320EA6EEFCF1FF01DC0A9FF1FC0F7
:100F4000A8FFA69CA69EA684F250006EF29E0F01FA
:100F5000550EA76EAA0EA76EA682A6B2FED7A694BD
:100F60000050F212162A0001D6D7000C28DE73DFDB
:100F7000050E246E010E256E27DE6A0EF66E080E33
:100F8000F76E55DE030E246E020E256E1DDE780E02
:100F9000F66E080EF76E4BDE60DE01C00FF00C0E31
:100FA000126EFA0E246E80DC122EFBD708DE0F5074
:100FB0000A081EE1030E246E010E256E05DE8A0E60
:100FC000F66E080EF76E33DE020E126E136E0F0E03
:100FD000146E020E156ECDDE02C011F001C010F0CD
:100FE000136A200E126E11C015F010C014F059DFF4
:100FF0000F500B081DE1050E246E010E256EE4DD79
:101000009C0EF66E080EF76E12DE020E126E136E56
:101010000F0E146E020E156EACDE02C011F001C090
:1010200010F0136A126A11C015F010C014F039DF05
:10103000C3EF09F0C4DD0FDF050E246E010E256E2F
:10104000C3DD1C0EF66E080EF76EF1DD0650085C6F
:1010500007E10750095C04E10DC005F00CC004F085
:101060000DC005F00CC004F005C009F004C008F084
:101070000F6A0F50030810E3320E246E15DC9590B2
:101080008C8095928C92640E246E0EDC95908C90E0
:1010900095928C820F2AEDD795928C92106A1050FF
:1010A000090816E395948C94020E126EFA0E246EC3
:1010B00054EC04F0122EFAD795948C84020E126E22
:1010C000FA0E246E54EC04F0122EFAD7102AE7D749
:1010D000116A1150010812E3320E246E54EC04F030
:1010E00095908C8095948C94640E246E54EC04F04E
:1010F00095908C9095948C84112AEBD795948C9430
:10110000B2EF09F00900F6CF11F0F7CF12F0F5CFEA
:1011100023F06BDD11C0F6FF12C0F7FF102EF2D7DF
:1011200012EF09F01350016A125C03E212C000F0E2
:101130000CD0006A080E146E123600361350005C94
:10114000D8B0006E0136142EF7D7000C015010C035
:1011500012F0640E136EE6DF00C010F00150300E86
:1011600007E111A20CD011B60AD011B8200E03D09D
:10117000119611981180012601C023F036DD10C0B0
:1011800012F00A0E136ECEDF00C010F00150300EC8
:1011900006E111B608D011A006D011B8200E012624
:1011A00001C023F022DD300E102610C023F01DDD1B
:1011B00017EF09F00F6A0F50020812E3320E246E87
:1011C00054EC04F095908C8095928C92640E246E71
:1011D00054EC04F095908C9095928C820F2AEBD76A
:1011E0000E06EDDC38DE060E246E010E256EECDCFC
:1011F000520EF66E080EF76E1ADD040E106EFA0E21
:10120000246E54EC04F0102EFAD7D9DC060E246EAE
:10121000020E256ED9DC5E0EF66E080EF76E080E15
:10122000106E70D70EC010F01B0E116E8FD7140EFB
:10123000106EFA0E246E54EC04F0102EFAD795922C
:101240008C92B6EF09F0BBDC080E246E010E256E01
:10125000BBDC2A0EF66E080EF76EE9DC020E106E8D
:10126000FA0E246E54EC04F0102EFAD7040E246EFD
:10127000020E256EA9DC320EF66E080EF76ED7DC74
:1012800095908C800F6A0F50090816E395928C8216
:10129000020E106EFA0E246E54EC04F0102EFAD7E3
:1012A00095928C92020E106EFA0E246E54EC04F09D
:1012B000102EFAD70F2AE7D795908C90B9EF09F046
:1012C000F86AD09EEA6AE96A096A086A0B6A0A6AD9
:1012D000050E0E6EC150C00B0F09C16E070EB46E25
:1012E000FDEF04F0106A0F6A5CEC05F003C012F029
:1012F00002C011F001C010F000C00FF044DC02C0C9
:1013000005F001C004F0106A200E0F6E5CEC05F0D1
:1013100003C012F002C011F001C010F000C00FF0C5
:1013200032DC02C007F001C006F049DC030E126E89
:10133000010E136E080E146E020E156E1ADD02C039
:1013400009F001C008F00650085C05E10750095C8F
:1013500002E10CD618D00450085C07E10550095C86
:1013600004E168D6050E0E6E0ED024D70E520BE1A6
:101370006AD705C00DF004C00CF007C005F006C028
:0A13800004F0FF0E0E6EAED703005E
:0200000400F00A
:0400000004030201F2
:0400200009080706BE
:020000040030CA
:0E00000024CE381E000781000FC00FE00F4015
:00000001FF
;PIC18F4550
;CRC=28B2  CREATED="22-févr.-12 17:34"
