:040800004EEF06F0C1
:08080800F76A180FF66E080EE6
:10081000F7220900F5501200280C0106706D000047
:10082000616D000054696D653A202025753A257583
:100830002575000054696D653A20257525753A25A2
:1008400075257500EA6A140EE96EEF500EE00F0E82
:10085000016E006A002EFED7012EFBD78F0E006EB0
:10086000002EFED70000EF2EF2D7000C1BB002D0F6
:100870008C9801D08C8895981BB202D08C9A01D0AC
:100880008C8A959A1BB402D08C9C01D08C8C959C40
:100890001BB602D08C9E01D08C8E959E00008D845C
:1008A0009694070E006E002EFED700D08D9496947D
:1008B000000C1C6A9588000E83B8010E1C12958AE4
:1008C000000E83BA010E006ED890003600501C1244
:1008D000958C000E83BC010E006E00360036FC0EB7
:1008E000001600501C12958E000E83BE010E006E85
:1008F000003600360036F80E001600501C121CC0E0
:1009000001F0000C9588958A958C958E8D82969233
:1009100000008D8496940000CCDF01C01BF08D9404
:10092000969400008D849694030E006E002EFED7E0
:1009300000D0BFDF01C01AF08D9496949598959AD7
:10094000959C959E1B38006EF00E001600501A10F4
:10095000016EAEEF04F08D909690D4D701C01AF0DE
:1009600001BEFBD7185202E18D9001D08D80969088
:1009700000008D92969200008D94969419381A6E0C
:100980000F0E1A161AC01BF071DF19500F0B1A6EDA
:100990001B6E6CDF000C9598959A959C959E96948D
:1009A000969096928D9096908D9296928D94969424
:1009B0000F0E146E47DF010E0C6E0C50030808E397
:1009C000030E1B6E53DF050E146E3CDF0C2AF5D7A9
:1009D000020E1B6E4BDF0C6A0C5003080EE3036A19
:1009E0000C50F2CF0DF0F29E0FDF0DBEF28E0D6EA9
:1009F000186A196EB0DF0C2AEFD760EF06F0152CDD
:100A000001D003D0400E166E01D0166A010E145CA0
:100A1000162616508009176E186A196E9CDF000C96
:100A200013500C0A05E0060A0BE0020A0FE013D08F
:100A3000186A010E196E8FDF020E146E03DF11D0DB
:100A4000010E146E020E156EDADF0BD0186A100E4E
:100A5000196E81DF06D0010E186E13C019F07BDF0E
:100A600000D0000C0900F5520CE0F6CF10F0F7CFE3
:100A700011F0F5CF13F0D4DF10C0F6FF11C0F7FF6F
:100A8000F1D7000C0900F6CF11F0F7CF12F0F5CF37
:100A900013F0C6DF11C0F6FF12C0F7FF102EF2D719
:100AA000000C1350016A125C03E212C000F00CD07B
:100AB000006A080E146E123600361350005CD8B06F
:100AC000006E0136142EF7D7000C015010C012F042
:100AD000640E136EE6DF00C010F00150300E07E127
:100AE00011A20CD011B60AD011B8200E03D0119665
:100AF00011981180012601C013F092DF10C012F08E
:100B00000A0E136ECEDF00C010F00150300E06E169
:100B100011B608D011A006D011B8200E012601C0D0
:100B200013F07EDF300E102610C013F079DF000CBA
:100B30000D0E146E010E156E62DF0E2C0AD00F50D2
:100B4000020807E104A005D01C0EF66E080EF76E31
:100B500089DF0E2C0AD00F50020807E104B005D03F
:100B6000200EF66E080EF76E7DDF0A0E146E6ADE3A
:100B7000010E146E156E43DF0E500F081AE1240E9D
:100B8000F66E080EF76E070E106E7CDF0FC010F0C9
:100B90001B0E116E9ADF3A0E136E42DF0DC010F07D
:100BA0001B0E116E92DF0CC010F01B0E116E8DDF4C
:100BB0001ED0340EF66E080EF76E060E106E62DF53
:100BC0000EC010F01B0E116E80DF0FC010F01B0E58
:100BD000116E7BDF3A0E136E23DF0DC010F01B0E7B
:100BE000116E73DF0CC010F01B0E116E6EDF000C67
:100BF000062A05500F0806E106500A0803E1010E17
:100C0000056E066A052C04D006500208D8B404709C
:100C1000052C07D00650030804E1010E066E0F0EE6
:100C2000056E23EF06F0072A07500A0802E1076A5B
:100C3000082A08500608D8B4086A27EF06F09382FD
:100C400081B201D0D5D7938481B401D0ECD787EF9E
:100C500006F0072A07500A081FE1076A082A085009
:100C6000060802E1086A062A05500F0806E1065048
:100C70000A0803E1010E056E066A052C04D0065031
:100C80000208D8B40470052C07D00650030804E10C
:100C9000010E066E0F0E056E8CEF06F0F86AD09E00
:100CA000EA6AE96A0490010E056E020E066E076A92
:100CB000086AC150C00B0F09C16E070EB46E6BD627
:100CC0000A6A010E096E0A50170825E303E109506C
:100CD000700821E307C00CF008C00DF005C00EF04D
:100CE00006C00FF025DF938081B011D0010E0B6E8E
:100CF0000B500F080BE307C00CF008C00DF005C047
:100D00000EF006C00FF014DF0B2AF2D798D7092A8D
:100D1000D8B40A2AD8D79DD7938081B0D1D7030001
:020000040030CA
:0E00000024CE381E000781000FC00FE00F4015
:00000001FF
;PIC18F4550
;CRC=BD24  CREATED="26-mai-11 20:25"
