:04080000FBEF05F015
:08080800F76A180FF66E080EE6
:10081000F7220900F5501200280C010654696D6595
:100820003A2532753A253032753A25303275000056
:10083000706D0000616D0000EA6A0F0EE96EEF5006
:100840000EE00F0E016E006A002EFED7012EFBD7C0
:100850008F0E006E002EFED70000EF2EF2D7000C98
:1008600016B002D08C9801D08C88959816B202D020
:100870008C9A01D08C8A959A16B402D08C9C01D0A7
:100880008C8C959C16B602D08C9E01D08C8E959E39
:1008900000008D849694070E006E002EFED700D0C7
:1008A0008D949694000C176A9588000E83B8010EFB
:1008B0001712958A000E83BA010E006ED89000368A
:1008C00000501712958C000E83BC010E006E00368E
:1008D0000036FC0E001600501712958E000E83BED7
:1008E000010E006E003600360036F80E001600507D
:1008F000171217C001F0000C9588958A958C958E7B
:100900008D82969200008D8496940000CCDF01C009
:1009100016F08D94969400008D849694030E006ECC
:10092000002EFED700D0BFDF01C015F08D94969445
:100930009598959A959C959E1638006EF00E001627
:1009400000501510016EA8EF04F08D909690D4D74A
:1009500001C015F001BEFBD7135202E18D9001D00A
:100960008D80969000008D92969200008D949694C2
:100970001438156E0F0E151615C016F071DF1450D1
:100980000F0B156E166E6CDF000C9598959A959C62
:10099000959E9694969096928D9096908D92969222
:1009A0008D9496940F0E0F6E47DF010E086E08505F
:1009B000030808E3030E166E53DF050E0F6E3CDFCF
:1009C000082AF5D7020E166E4BDF086A0850030896
:1009D0000EE3036A0850F2CF09F0F29E15DF09BE5C
:1009E000F28E096E136A146EB0DF082AEFD70BEF90
:1009F00006F0102C01D003D0400E116E01D0116A08
:100A0000010E0F5C112611508009126E136A146ECC
:100A10009CDF000C0E500C0A05E0060A0BE0020AEF
:100A20000FE013D0136A010E146E8FDF020E0F6EEB
:100A300003DF11D0010E0F6E020E106EDADF0BD045
:100A4000136A100E146E81DF06D0010E136E0EC0F5
:100A500014F07BDF00D0000C0900F6CF0CF0F7CFCC
:100A60000DF0F5CF0EF0D6DF0CC0F6FF0DC0F7FF8E
:100A70000B2EF2D79EEF05F00E50016A0D5C03E2DB
:100A80000DC000F00CD0006A080E0F6E0D36003657
:100A90000E50005CD8B0006E01360F2EF7D7000C58
:100AA00001500BC00DF0640E0E6EE6DF00C00BF0BF
:100AB0000150300E07E10CA20CD00CB60AD00CB8D5
:100AC000200E03D00C960C980C80012601C00EF06D
:100AD000A1DF0BC00DF00A0E0E6ECEDF00C00BF0D2
:100AE0000150300E06E10CB608D00CA006D00CB8B0
:100AF000200E012601C00EF08DDF300E0B260BC03C
:100B00000EF088DF000C0900F5520CE0F6CF0BF078
:100B1000F7CF0CF0F5CF0EF07DDF0BC0F6FF0CC069
:100B2000F7FFF1D7000C010E0F6E106E62DF1C0E86
:100B3000F66E080EF76E050E0B6E8ED708C00BF022
:100B4000110E0C6EADDF3A0E0E6E64DF09C00BF0B5
:100B5000010E0C6EA5DF3A0E0E6E5CDF0AC00BF0C4
:100B6000010E0C6E9DDF0F0E0F6E010E106E41DF39
:100B700008500C0807E107A005D0300EF66E080EED
:100B8000F76EC1DF08500C0807E107B005D0340E3E
:100B9000F66E080EF76EB7DF12EF06F0062A065063
:100BA0000D0803E1010E066E0770E2EF05F0052A5D
:100BB00005503B08D8A0056AE6EF05F0938281B2A4
:100BC00001D0ECD7938481B401D0F1D71AEF06F0AD
:100BD000042A04503C080DE1046A052A05503C082B
:100BE00002E1056A062A06500D0803E1010E066EB1
:100BF000077023EF06F0F86AD09EEA6AE96A046A91
:100C0000056A0C0E066E0790C150C00B0F09C16E2D
:100C1000070EB46EBAD606C008F005C009F004C0CD
:100C20000AF081D7938081B006D0046AFA0E0F6E65
:100C300003DEC4D708D0040E086EFA0E0F6EFCDD7A
:0A0C4000082EFBD7C5D7E7D7030045
:020000040030CA
:0E00000024CE381E000781000FC00FE00F4015
:00000001FF
;PIC18F4550
;CRC=673B  CREATED="31-mai-11 15:55"
