:020000040000FA
:10000000FFFFFFFFFFFFFFFFFFFFFFFFFFFFFFFF00
:10001000FFFFFFFFFFFFFFFFFFFFFFFFFFFFFFFFF0
:10002000FFFFFFFFFFFFFFFFFFFFFFFFFFFFFFFFE0
:10003000FFFFFFFFFFFFFFFFFFFFFFFFFFFFFFFFD0
:10080000C0EF09F0FFFFFFFF046ED8CF05F0E0CF87
:1008100006F00001E9CF0CF0EACF07F0E1CF08F0D5
:10082000E2CF09F0D9CF0AF0DACF0BF0F3CF12F014
:10083000F4CF13F0FACF14F000C00EF001C00FF0A7
:1008400002C010F003C011F09DA02AEF04F09EB08A
:100850005AEF04F00EC000F00FC001F010C002F01B
:1008600011C003F00CC0E9FF07C0EAFF078E08C003
:10087000E1FF09C0E2FF0AC0D9FF0BC0DAFF12C0D6
:10088000F3FF13C0F4FF14C0FAFF045006C0E0FFEA
:1008900005C0D8FF1000F2CF0DF0F29EF76AB00F3E
:1008A000F66E080EF7220900F5500DBEF28E12000A
:1008B000280C0106000E1F5E205A010E215A000E60
:1008C000225A22520AE12150000807E3FA0E1F269D
:1008D000000E202221222222232A23503C083BE121
:1008E000272A236A27503C0836E1262A276A265001
:1008F000180831E1252A266A25501D080BE12450ED
:10090000020808E12850030B486E496A48521AE170
:10091000495218E125501E0803E12450020812E054
:1009200025501F080CE1245004080CE02450060850
:1009300009E02450090806E024500B0803E0255084
:10094000200802E1242A256A24500D0804E1282AFF
:10095000D8B4292A246A9E902AEF04F054696D6560
:100960003A2532753A253032753A25303275000015
:1009700054454D503A25332E3166200054454D5094
:100980003A2D25332E316620000043200000226AD4
:10099000216A206AFA0E1F6E850ECD6E9D80E0EFF3
:1009A00009F0EA6A3C0EE96EEF500EE00F0E016EA0
:1009B000006A002EFED7012EFBD78F0E006E002E90
:1009C000FED70000EF2EF2D7000C43B002D08C9877
:1009D00001D08C88959843B202D08C9A01D08C8A31
:1009E000959A43B402D08C9C01D08C8C959C43B6D4
:1009F00002D08C9E01D08C8E959E00008D849694A2
:100A0000070E006E002EFED700D08D949694000C39
:100A1000446A9588000E83B8010E4412958A000E30
:100A200083BA010E006ED890003600504412958CA7
:100A3000000E83BC010E006E00360036FC0E001660
:100A400000504412958E000E83BE010E006E0036DB
:100A500000360036F80E00160050441244C001F073
:100A6000000C9588958A958C958E8D8296920000C3
:100A70008D8496940000CCDF01C043F08D94969451
:100A800000008D849694030E006E002EFED700D0D9
:100A9000BFDF01C042F08D9496949598959A959CED
:100AA000959E4338006EF00E001600504210016E05
:100AB0005DEF05F08D909690D4D701C042F001BE55
:100AC000FBD7405202E18D9001D08D8096900000BE
:100AD0008D92969200008D9496944138426E0F0E3E
:100AE000421642C043F071DF41500F0B426E436E1D
:100AF0006CDF000C9598959A959C959E969496908F
:100B000096928D9096908D9296928D9496940F0ECB
:100B10003C6E47DF010E2E6E2E50030808E3030ED5
:100B2000436E53DF050E3C6E3CDF2E2AF5D7020ED6
:100B3000436E4BDF2E6A2E5003080EE3036A2E50DD
:100B4000F2CF2FF0F29EA7DE2FBEF28E2F6E406AFC
:100B5000416EB0DF2E2AEFD7E4EF09F0010E3A5EC6
:100B60000CE3EA6A3A0EE96EEF5007E0020E006EFF
:100B7000002EFED700D0EF2EF9D7000C94908B906A
:100B8000020E356EFA0E3A6EE9DF352EFBD79480F1
:100B9000500E3A6EE3DF020E356EFA0E3A6EDEDF6D
:100BA000352EFBD79480346A82B0342A34C001F0E9
:100BB000000C94908B90070E006E002EFED700D094
:100BC000375202E18B9001D08B809490500E3A6E98
:100BD000C5DF9480FEEF05F0356A3550070810E355
:100BE00034C000F03550016E04E0D8900032012E80
:100BF000FCD7000E00B0010E376EDBD7352AEDD7DB
:100C0000000C399094908B90070E006E002EFED74A
:100C100000D09480130E006E002EFED700D094807A
:100C2000399082B03980780E3A6E98DF000E39B074
:100C3000010E016E22EF06F0376A366A3650070859
:100C400012E3DFD701C038F0382C0BD0010E006E54
:100C50003650016E04E0D8900036012EFCD70050CB
:100C60003712362AEBD737C001F01FEF07F0006AC2
:100C7000016A3450D89035B000260032013235B2C6
:100C800000260032013235B400260032013235B67A
:100C900000260032013235B800260032013235BA62
:100CA00000260032013235BC00260032013235BE4A
:100CB00000260032013238EF07F034503602F3CF0D
:100CC00001F0F4CF00F03702F35000263550360221
:100CD000F3500020026E41EF07F08E0E006E35C01B
:100CE00001F034C002F0036A015209E102C001F0D0
:100CF000026A080E005E015202E1006A08D0D89034
:100D000001BE04D0023601360006F9D7019E4DEF30
:100D100007F03B50D8B471D0006E3F50D8B46DD0BE
:100D2000002604E3810E002668E204D07F0E005EF8
:100D300064E363E03CC043F04050431A3C8E408E75
:100D40003E504202F4CF45F03D504102F4CF03F053
:100D5000F3CF44F04202F3504526F4504422000EF3
:100D600003223E504102F3504526F4504422000E27
:100D7000026A032202223C504202F3504426F450FD
:100D80000322000E02223C504102F3500326F4508D
:100D90000222000E016A01223E504002F350442616
:100DA000F4500322000E022201223D504002F35073
:100DB0000326F4500222000E01223C504002F35060
:100DC0000226F4500122002A01BE05D04436033623
:100DD000023601360006000E44AE0AD0032A022273
:100DE0000122015005E1025003E1035001E1002A14
:100DF00043BE018E43AE019E04D0006A016A026ABE
:100E0000036A000CBBDECC0E346EE6DE440E346E9C
:100E1000E3DEB4DECC0E346EDFDEBE0E346EDCDE1E
:100E20002E6A2E50080813E3036A2E50160F016E27
:100E3000000E032201C034F003C035F0FDD635C0EA
:100E4000EAFF34C0E9FF01C0EFFF2E2AEAD717C03E
:100E50002FF0175080080EE22F5202E0000E01D052
:100E6000010E010F2F6E2FC034F0FF0E356EFFD62E
:100E700001C02FF0356A2FC034F0010E376E366A8C
:100E80001CD701C034F016500124016E000E022060
:100E9000036E01C034F0356E20D703C033F002C0BA
:100EA00032F001C031F000C030F033C03EF032C04B
:100EB0003DF031C03CF030C03BF0426A416A406ACC
:100EC0007B0E3F6E26DF03C033F002C032F001C05C
:100ED00031F000C030F030C000F031C001F032C05D
:100EE00002F033C003F0E5EF09F02FC036F03350C5
:100EF000361A36AE05D0D894D8902FBED8802FD0D1
:100F00002FC036F032C037F02E50375E06E036AED6
:100F100026D0D850010AD86E22D033C037F02F50D7
:100F2000375E06E036AE1BD0D850010AD86E17D017
:100F300034C037F03050375E06E036AE10D0D850AF
:100F4000010AD86E0CD035C037F03150375E06E05C
:100F500036AE05D0D850010AD86E01D0D890000C1A
:100F60003D2C01D003D0400E3E6E01D03E6A010EF2
:100F70003C5C3E263E5080093F6E406A416E9ADDE1
:100F8000000C3B500C0A05E0060A0BE0020A0FE0D9
:100F900013D0406A010E416E8DDD020E3C6E01DD04
:100FA00011D0010E3C6E020E3D6EDADF0BD0406AAE
:100FB000100E416E7FDD06D0010E406E3BC041F049
:100FC00079DD00D0000C0900F6CF2FF0F7CF30F01C
:100FD000F5CF3BF0D6DF2FC0F6FF30C0F7FF2E2E47
:100FE000F2D7000C3150016A305C03E230C000F0EF
:100FF0000CD0006A080E326E303600363150005C7C
:10100000D8B0006E0136322EF7D7000C01502EC03A
:1010100030F0640E316EE6DF00C02EF00150300E6D
:1010200007E12FA20CD02FB60AD02FB8200E03D084
:101030002F962F982F80012601C03BF0A2DF2EC0F3
:1010400030F00A0E316ECEDF00C02EF00150300EAF
:1010500006E12FB608D02FA006D02FB8200E01260B
:1010600001C03BF08EDF300E2E262EC03BF089DF14
:10107000000CEACF36F0E9CF35F02F38F009316EA9
:101080003126E20F326E320F346E2F500F0B3226A4
:1010900032263426E90F336E332633262E380F0BD3
:1010A0003326342633363436341E34362E500F0B66
:1010B00034263136070E306E0A0E33063426FDE331
:1010C00032063326FDE331063226FDE330063126B3
:1010D000FDE3EA6A300EE96E070E3514359CE92609
:1010E000340EE95CD8B4358CEF50006E08E135BCA5
:1010F00006D035B813D035B602D0200E03D03586D1
:101100003598300E0026EACF2FF0E9CF2EF000C040
:101110003BF037DF2FC0EAFF2EC0E9FFEE5035ACC1
:10112000DFD733EF0AF03B50B6083B6E036A3CC092
:101130003FF03C8ED8903C323D323E320332023298
:10114000013200323B2EF6D73FAE0BD0001E011EFF
:10115000021E031E002AD8B4012AD8B4022AD8B429
:10116000032A17EF09F0006A016A026A036A436AF8
:10117000446A456A466A4250411040103F102CE0D4
:10118000200E476ED8903B363C363D363E364336D1
:101190004436453646364250465C08E14150455C8F
:1011A00005E14050445C02E13F50435C0FE33F5097
:1011B000435E4050D8A0403C445E4150D8A0413CE2
:1011C000455E4250D8A0423C465ED880003601368B
:1011D00002360336472ED6D7EA6A430EE96E000C74
:1011E000E950336E3250356E19E031C03EF030C0F8
:1011F0003DF02FC03CF02EC03BF0426A416A200E09
:10120000406E820E3F6E85DD03C031F002C030F0CB
:1012100001C02FF000C02EF0352EE7D731C03EF0D0
:1012200030C03DF02FC03CF02EC03BF07CD703C057
:1012300031F002C030F001C02FF000C02EF031AE0E
:101240000DD03306338A2E1E2F1E301E311E2E2A3D
:10125000D8B42F2AD8B4302AD8B4312A3B0E3A6EEB
:101260009A0E396ECA0E386E376A0A0E356E3250D3
:10127000D8B4332A31C03EF030C03DF02FC03CF02E
:101280002EC03BF03AC042F039C041F038C040F0C7
:1012900037C03FF068DF0150EFCF2EF0ECCF2FF0DA
:1012A000ECCF30F0ECCF31F000520FE13228355C5A
:1012B0000CE033500CE00F0B355C01E037E233BE3D
:1012C00035D033BC04D0200E2DD0200E331633AAD7
:1012D0000CD0339A3250D8A433060050336E2D0E02
:1012E0003B6E4FDE3350006E336A3250355C0AE19C
:1012F0000050336E2E0E3B6E44DE3350006E200ED7
:101300003316000E300E33AA0DD0339A3250D8A4C3
:1013100033060050336E2D0E3B6E33DE3350006EBD
:10132000336A300E002600C03BF02BDE3AC03EF0A0
:1013300039C03DF038C03CF037C03BF0426A416AEA
:10134000406A0A0E3F6E0FDF03C03AF002C039F068
:1013500001C038F000C037F0352E8CD7000C0900E2
:10136000F5520CE0F6CF2EF0F7CF2FF0F5CF3BF093
:1013700008DE2EC0F6FF2FC0F7FFF1D77DEF0AF091
:10138000F86AD09E078EEA6AE96A236A246A256AA7
:101390000C0E266E276A070E296EDB0E286EC150D2
:1013A000C00B0F09C16E070EB46E166A176A186A71
:1013B000196A1A6A1B6A1C6A1D6A1E6AC7EF04F062
:1013C000C00EF2127AEF05F01DD52DC031F02CC001
:1013D00030F02BC02FF02AC02EF003C035F002C031
:1013E00034F001C033F000C032F07FDD3DE1010E8A
:1013F0003C6E3D6EB5DD5C0EF66E090EF76E050EA9
:101400002E6EE1DD26C02EF0110E2F6EFFDD3A0E9E
:101410003B6EB7DD27C02EF0010E2F6EF7DD3A0EC2
:101420003B6EAFDD23C02EF0010E2F6EEFDD010EFF
:101430003C6E020E3D6E94DD25C02EF0110E2F6E17
:10144000E5DD2F0E3B6E9DDD24C02EF0110E2F6EBC
:10145000DDDD2F0E3B6E95DD010EE96E29C02FF00C
:1014600028C02EF006D6B0D70C0E3C6E010E3D6E95
:1014700077DD700EF66E090EF76E050E2E6EA3DD8B
:10148000020EE96E2DC031F02CC030F02BC02FF0D1
:101490002AC02EF0010E326EA3DE200E3B6E71DDEF
:1014A0002DC031F02CC030F02BC02FF02AC02EF010
:1014B000356A346A336A326A18DD17E37C0EF66ED9
:1014C000090EF76E060E2E6E7EDD020EE96E2DC041
:1014D00031F02CC030F02BC02FF02AC02EF0010EBE
:1014E000326E7EDE200E3B6E4CDDDF0E3B6E49DD44
:1014F0008A0EF66E090EF76E32D70300FFFFFFFF6C
:10150000FFFFFFFFFFFFFFFFFFFFFFFFFFFFFFFFEB
:10151000FFFFFFFFFFFFFFFFFFFFFFFFFFFFFFFFDB
:10152000FFFFFFFFFFFFFFFFFFFFFFFFFFFFFFFFCB
:10153000FFFFFFFFFFFFFFFFFFFFFFFFFFFFFFFFBB
:020000040020DA
:020000040030CA
:0E00000027CE381E000781000FC00FE00F4012
:00000001FF
